{
  "contractName": "Payroll",
  "abi": [
    {
      "constant": true,
      "inputs": [],
      "name": "totalSalary",
      "outputs": [
        {
          "name": "",
          "type": "uint256"
        }
      ],
      "payable": false,
      "stateMutability": "view",
      "type": "function"
    },
    {
      "constant": true,
      "inputs": [],
      "name": "owner",
      "outputs": [
        {
          "name": "",
          "type": "address"
        }
      ],
      "payable": false,
      "stateMutability": "view",
      "type": "function"
    },
    {
      "constant": true,
      "inputs": [
        {
          "name": "",
          "type": "address"
        }
      ],
      "name": "employees",
      "outputs": [
        {
          "name": "index",
          "type": "uint256"
        },
        {
          "name": "salary",
          "type": "uint256"
        },
        {
          "name": "lastPayday",
          "type": "uint256"
        }
      ],
      "payable": false,
      "stateMutability": "view",
      "type": "function"
    },
    {
      "constant": false,
      "inputs": [
        {
          "name": "newOwner",
          "type": "address"
        }
      ],
      "name": "transferOwnership",
      "outputs": [],
      "payable": false,
      "stateMutability": "nonpayable",
      "type": "function"
    },
    {
      "inputs": [],
      "payable": true,
      "stateMutability": "payable",
      "type": "constructor"
    },
    {
      "anonymous": false,
      "inputs": [
        {
          "indexed": false,
          "name": "addrOfemployee",
          "type": "address"
        }
      ],
      "name": "NewEmployee",
      "type": "event"
    },
    {
      "anonymous": false,
      "inputs": [
        {
          "indexed": false,
          "name": "addrOfemployee",
          "type": "address"
        }
      ],
      "name": "UpdateEmployee",
      "type": "event"
    },
    {
      "anonymous": false,
      "inputs": [
        {
          "indexed": false,
          "name": "addrOfemployee",
          "type": "address"
        }
      ],
      "name": "RemoveEmployee",
      "type": "event"
    },
    {
      "anonymous": false,
      "inputs": [
        {
          "indexed": false,
          "name": "balance",
          "type": "uint256"
        }
      ],
      "name": "NewFund",
      "type": "event"
    },
    {
      "anonymous": false,
      "inputs": [
        {
          "indexed": false,
          "name": "addrOfemployee",
          "type": "address"
        }
      ],
      "name": "GetPaid",
      "type": "event"
    },
    {
      "anonymous": false,
      "inputs": [
        {
          "indexed": true,
          "name": "previousOwner",
          "type": "address"
        },
        {
          "indexed": true,
          "name": "newOwner",
          "type": "address"
        }
      ],
      "name": "OwnershipTransferred",
      "type": "event"
    },
    {
      "constant": false,
      "inputs": [
        {
          "name": "employeeId",
          "type": "address"
        },
        {
          "name": "salary",
          "type": "uint256"
        }
      ],
      "name": "addEmployee",
      "outputs": [],
      "payable": false,
      "stateMutability": "nonpayable",
      "type": "function"
    },
    {
      "constant": false,
      "inputs": [
        {
          "name": "employeeId",
          "type": "address"
        }
      ],
      "name": "removeEmployee",
      "outputs": [],
      "payable": false,
      "stateMutability": "nonpayable",
      "type": "function"
    },
    {
      "constant": false,
      "inputs": [
        {
          "name": "oldAddress",
          "type": "address"
        },
        {
          "name": "newAddress",
          "type": "address"
        }
      ],
      "name": "changePaymentAddress",
      "outputs": [],
      "payable": false,
      "stateMutability": "nonpayable",
      "type": "function"
    },
    {
      "constant": false,
      "inputs": [
        {
          "name": "employeeId",
          "type": "address"
        },
        {
          "name": "salary",
          "type": "uint256"
        }
      ],
      "name": "updateEmployee",
      "outputs": [],
      "payable": false,
      "stateMutability": "nonpayable",
      "type": "function"
    },
    {
      "constant": false,
      "inputs": [],
      "name": "addFund",
      "outputs": [
        {
          "name": "",
          "type": "uint256"
        }
      ],
      "payable": true,
      "stateMutability": "payable",
      "type": "function"
    },
    {
      "constant": true,
      "inputs": [],
      "name": "calculateRunway",
      "outputs": [
        {
          "name": "",
          "type": "uint256"
        }
      ],
      "payable": false,
      "stateMutability": "view",
      "type": "function"
    },
    {
      "constant": true,
      "inputs": [],
      "name": "hasEnoughFund",
      "outputs": [
        {
          "name": "",
          "type": "bool"
        }
      ],
      "payable": false,
      "stateMutability": "view",
      "type": "function"
    },
    {
      "constant": false,
      "inputs": [],
      "name": "getPaid",
      "outputs": [],
      "payable": false,
      "stateMutability": "nonpayable",
      "type": "function"
    },
    {
      "constant": true,
      "inputs": [],
      "name": "getEmployerInfo",
      "outputs": [
        {
          "name": "balance",
          "type": "uint256"
        },
        {
          "name": "runway",
          "type": "uint256"
        },
        {
          "name": "employeeCount",
          "type": "uint256"
        }
      ],
      "payable": false,
      "stateMutability": "view",
      "type": "function"
    },
    {
      "constant": true,
      "inputs": [
        {
          "name": "index",
          "type": "uint256"
        }
      ],
      "name": "getEmployeeInfo",
      "outputs": [
        {
          "name": "employeeAddress",
          "type": "address"
        },
        {
          "name": "salary",
          "type": "uint256"
        },
        {
          "name": "lastPayday",
          "type": "uint256"
        },
        {
          "name": "balance",
          "type": "uint256"
        }
      ],
      "payable": false,
      "stateMutability": "view",
      "type": "function"
    },
    {
      "constant": true,
      "inputs": [
        {
          "name": "id",
          "type": "address"
        }
      ],
      "name": "getEmployeeInfoById",
      "outputs": [
        {
          "name": "salary",
          "type": "uint256"
        },
        {
          "name": "lastPayday",
          "type": "uint256"
        },
        {
          "name": "balance",
          "type": "uint256"
        }
      ],
      "payable": false,
      "stateMutability": "view",
      "type": "function"
    }
  ],
  "bytecode": "0x60806040526000600155336000806101000a81548173ffffffffffffffffffffffffffffffffffffffff021916908373ffffffffffffffffffffffffffffffffffffffff160217905550336000806101000a81548173ffffffffffffffffffffffffffffffffffffffff021916908373ffffffffffffffffffffffffffffffffffffffff16021790555061178c806100986000396000f3006080604052600436106100db576000357c0100000000000000000000000000000000000000000000000000000000900463ffffffff16806323fed09e146100e05780632e46eb1d1461010f5780634ec195121461013a5780635e91d8ec146101655780638da5cb5b146101b25780638ef8f24114610209578063a2f09dfa14610242578063bc456c4214610260578063cf41d6f8146102c3578063d0678947146102da578063d108177a1461033f578063e7fd9a1314610382578063f2fde38b146103cf578063f6757cff14610412578063fc5378bb14610494575b600080fd5b3480156100ec57600080fd5b506100f56104f9565b604051808215151515815260200191505060405180910390f35b34801561011b57600080fd5b5061012461050a565b6040518082815260200191505060405180910390f35b34801561014657600080fd5b5061014f610510565b6040518082815260200191505060405180910390f35b34801561017157600080fd5b506101b0600480360381019080803573ffffffffffffffffffffffffffffffffffffffff16906020019092919080359060200190929190505050610557565b005b3480156101be57600080fd5b506101c7610793565b604051808273ffffffffffffffffffffffffffffffffffffffff1673ffffffffffffffffffffffffffffffffffffffff16815260200191505060405180910390f35b34801561021557600080fd5b5061021e6107b8565b60405180848152602001838152602001828152602001935050505060405180910390f35b61024a610803565b6040518082815260200191505060405180910390f35b34801561026c57600080fd5b506102c1600480360381019080803573ffffffffffffffffffffffffffffffffffffffff169060200190929190803573ffffffffffffffffffffffffffffffffffffffff169060200190929190505050610870565b005b3480156102cf57600080fd5b506102d8610ad3565b005b3480156102e657600080fd5b5061031b600480360381019080803573ffffffffffffffffffffffffffffffffffffffff169060200190929190505050610cc4565b60405180848152602001838152602001828152602001935050505060405180910390f35b34801561034b57600080fd5b50610380600480360381019080803573ffffffffffffffffffffffffffffffffffffffff169060200190929190505050610cee565b005b34801561038e57600080fd5b506103cd600480360381019080803573ffffffffffffffffffffffffffffffffffffffff16906020019092919080359060200190929190505050611048565b005b3480156103db57600080fd5b50610410600480360381019080803573ffffffffffffffffffffffffffffffffffffffff16906020019092919050505061127f565b005b34801561041e57600080fd5b5061043d600480360381019080803590602001909291905050506113d4565b604051808573ffffffffffffffffffffffffffffffffffffffff1673ffffffffffffffffffffffffffffffffffffffff16815260200184815260200183815260200182815260200194505050505060405180910390f35b3480156104a057600080fd5b506104d5600480360381019080803573ffffffffffffffffffffffffffffffffffffffff1690602001909291905050506114c7565b60405180848152602001838152602001828152602001935050505060405180910390f35b600080610504610510565b11905090565b60015481565b60008060015414156105255760009050610554565b6105516001543073ffffffffffffffffffffffffffffffffffffffff163161157790919063ffffffff16565b90505b90565b60008060009054906101000a900473ffffffffffffffffffffffffffffffffffffffff1673ffffffffffffffffffffffffffffffffffffffff163373ffffffffffffffffffffffffffffffffffffffff161415156105b457600080fd5b826000600360008373ffffffffffffffffffffffffffffffffffffffff1673ffffffffffffffffffffffffffffffffffffffff168152602001908152602001600020600201541415151561060457fe5b61060d84611592565b600360008573ffffffffffffffffffffffffffffffffffffffff1673ffffffffffffffffffffffffffffffffffffffff16815260200190815260200160002060010154915061066d670de0b6b3a76400008461169d90919063ffffffff16565b925082600360008673ffffffffffffffffffffffffffffffffffffffff1673ffffffffffffffffffffffffffffffffffffffff1681526020019081526020016000206001018190555042600360008673ffffffffffffffffffffffffffffffffffffffff1673ffffffffffffffffffffffffffffffffffffffff1681526020019081526020016000206002018190555061072482610716856001546116d890919063ffffffff16565b6116f690919063ffffffff16565b6001819055507f488bacda22fcd72c26e796890d62491cef03e8de61cad515b1826a683f2e760f84604051808273ffffffffffffffffffffffffffffffffffffffff1673ffffffffffffffffffffffffffffffffffffffff16815260200191505060405180910390a150505050565b6000809054906101000a900473ffffffffffffffffffffffffffffffffffffffff1681565b60008060003073ffffffffffffffffffffffffffffffffffffffff16319250600060015411156107f1576107ea610510565b91506107f6565b600091505b6002805490509050909192565b60007fbe1e4b1ad5d83f75925e2f00ab046fbab2ee90d0dbdf7f2049d037a48ada09f33073ffffffffffffffffffffffffffffffffffffffff16316040518082815260200191505060405180910390a13073ffffffffffffffffffffffffffffffffffffffff1631905090565b6000809054906101000a900473ffffffffffffffffffffffffffffffffffffffff1673ffffffffffffffffffffffffffffffffffffffff163373ffffffffffffffffffffffffffffffffffffffff161415156108cb57600080fd5b816000600360008373ffffffffffffffffffffffffffffffffffffffff1673ffffffffffffffffffffffffffffffffffffffff168152602001908152602001600020600201541415151561091b57fe5b816000600360008373ffffffffffffffffffffffffffffffffffffffff1673ffffffffffffffffffffffffffffffffffffffff1681526020019081526020016000206002015414151561096a57fe5b61097384611592565b606060405190810160405280600360008773ffffffffffffffffffffffffffffffffffffffff1673ffffffffffffffffffffffffffffffffffffffff168152602001908152602001600020600001548152602001600360008773ffffffffffffffffffffffffffffffffffffffff1673ffffffffffffffffffffffffffffffffffffffff16815260200190815260200160002060010154815260200142815250600360008573ffffffffffffffffffffffffffffffffffffffff1673ffffffffffffffffffffffffffffffffffffffff168152602001908152602001600020600082015181600001556020820151816001015560408201518160020155905050600360008573ffffffffffffffffffffffffffffffffffffffff1673ffffffffffffffffffffffffffffffffffffffff16815260200190815260200160002060008082016000905560018201600090556002820160009055505050505050565b600080336000600360008373ffffffffffffffffffffffffffffffffffffffff1673ffffffffffffffffffffffffffffffffffffffff1681526020019081526020016000206002015414151515610b2657fe5b339250610b7f600a600360008673ffffffffffffffffffffffffffffffffffffffff1673ffffffffffffffffffffffffffffffffffffffff168152602001908152602001600020600201546116d890919063ffffffff16565b91504282101515610b8c57fe5b81600360008573ffffffffffffffffffffffffffffffffffffffff1673ffffffffffffffffffffffffffffffffffffffff168152602001908152602001600020600201819055508273ffffffffffffffffffffffffffffffffffffffff166108fc600360008673ffffffffffffffffffffffffffffffffffffffff1673ffffffffffffffffffffffffffffffffffffffff168152602001908152602001600020600101549081150290604051600060405180830381858888f19350505050158015610c5b573d6000803e3d6000fd5b507f7decdec0fa70b21ecd45a15b04d5f5313c8fc915a1b3c034aa2bffa4fc8fc59183604051808273ffffffffffffffffffffffffffffffffffffffff1673ffffffffffffffffffffffffffffffffffffffff16815260200191505060405180910390a1505050565b60036020528060005260406000206000915090508060000154908060010154908060020154905083565b60008060008060009054906101000a900473ffffffffffffffffffffffffffffffffffffffff1673ffffffffffffffffffffffffffffffffffffffff163373ffffffffffffffffffffffffffffffffffffffff16141515610d4e57600080fd5b836000600360008373ffffffffffffffffffffffffffffffffffffffff1673ffffffffffffffffffffffffffffffffffffffff1681526020019081526020016000206002015414151515610d9e57fe5b610da785611592565b600360008673ffffffffffffffffffffffffffffffffffffffff1673ffffffffffffffffffffffffffffffffffffffff168152602001908152602001600020600101549350600360008673ffffffffffffffffffffffffffffffffffffffff1673ffffffffffffffffffffffffffffffffffffffff168152602001908152602001600020600001549250610e46846001546116f690919063ffffffff16565b600181905550600360008673ffffffffffffffffffffffffffffffffffffffff1673ffffffffffffffffffffffffffffffffffffffff168152602001908152602001600020600080820160009055600182016000905560028201600090555050600283815481101515610eb557fe5b9060005260206000200160006101000a81549073ffffffffffffffffffffffffffffffffffffffff02191690556002600160028054905003815481101515610ef957fe5b9060005260206000200160009054906101000a900473ffffffffffffffffffffffffffffffffffffffff16915081600284815481101515610f3657fe5b9060005260206000200160006101000a81548173ffffffffffffffffffffffffffffffffffffffff021916908373ffffffffffffffffffffffffffffffffffffffff16021790555082600360008473ffffffffffffffffffffffffffffffffffffffff1673ffffffffffffffffffffffffffffffffffffffff168152602001908152602001600020600001819055506001600281818054905003915081610fdd919061170f565b507f52d6abdca596d1c4a93f3df131dcf3a55ecaaa92ab3a0be58a15b98aab12d49b85604051808273ffffffffffffffffffffffffffffffffffffffff1673ffffffffffffffffffffffffffffffffffffffff16815260200191505060405180910390a15050505050565b60008060009054906101000a900473ffffffffffffffffffffffffffffffffffffffff1673ffffffffffffffffffffffffffffffffffffffff163373ffffffffffffffffffffffffffffffffffffffff161415156110a557600080fd5b826000600360008373ffffffffffffffffffffffffffffffffffffffff1673ffffffffffffffffffffffffffffffffffffffff168152602001908152602001600020600201541415156110f457fe5b61110f670de0b6b3a76400008461169d90919063ffffffff16565b9250600280549050915060028490806001815401808255809150509060018203906000526020600020016000909192909190916101000a81548173ffffffffffffffffffffffffffffffffffffffff021916908373ffffffffffffffffffffffffffffffffffffffff1602179055505060606040519081016040528083815260200184815260200142815250600360008673ffffffffffffffffffffffffffffffffffffffff1673ffffffffffffffffffffffffffffffffffffffff168152602001908152602001600020600082015181600001556020820151816001015560408201518160020155905050611210836001546116d890919063ffffffff16565b6001819055507f37e9308d0d750d43a2e5ef16b6d47b60b2741e12be41128ca3bec877db4f9dcb84604051808273ffffffffffffffffffffffffffffffffffffffff1673ffffffffffffffffffffffffffffffffffffffff16815260200191505060405180910390a150505050565b6000809054906101000a900473ffffffffffffffffffffffffffffffffffffffff1673ffffffffffffffffffffffffffffffffffffffff163373ffffffffffffffffffffffffffffffffffffffff161415156112da57600080fd5b600073ffffffffffffffffffffffffffffffffffffffff168173ffffffffffffffffffffffffffffffffffffffff161415151561131657600080fd5b8073ffffffffffffffffffffffffffffffffffffffff166000809054906101000a900473ffffffffffffffffffffffffffffffffffffffff1673ffffffffffffffffffffffffffffffffffffffff167f8be0079c531659141344cd1fd0a4f28419497f9722a3daafe3b4186f6b6457e060405160405180910390a3806000806101000a81548173ffffffffffffffffffffffffffffffffffffffff021916908373ffffffffffffffffffffffffffffffffffffffff16021790555050565b60008060008060006002868154811015156113eb57fe5b9060005260206000200160009054906101000a900473ffffffffffffffffffffffffffffffffffffffff169050809450600360008273ffffffffffffffffffffffffffffffffffffffff1673ffffffffffffffffffffffffffffffffffffffff168152602001908152602001600020600101549350600360008273ffffffffffffffffffffffffffffffffffffffff1673ffffffffffffffffffffffffffffffffffffffff1681526020019081526020016000206002015492508073ffffffffffffffffffffffffffffffffffffffff16319150509193509193565b6000806000600360008573ffffffffffffffffffffffffffffffffffffffff1673ffffffffffffffffffffffffffffffffffffffff168152602001908152602001600020600101549250600360008573ffffffffffffffffffffffffffffffffffffffff1673ffffffffffffffffffffffffffffffffffffffff1681526020019081526020016000206002015491508373ffffffffffffffffffffffffffffffffffffffff163190509193909250565b600080828481151561158557fe5b0490508091505092915050565b6000611650600a6116426115f1600360008773ffffffffffffffffffffffffffffffffffffffff1673ffffffffffffffffffffffffffffffffffffffff16815260200190815260200160002060020154426116f690919063ffffffff16565b600360008773ffffffffffffffffffffffffffffffffffffffff1673ffffffffffffffffffffffffffffffffffffffff1681526020019081526020016000206001015461169d90919063ffffffff16565b61157790919063ffffffff16565b90508173ffffffffffffffffffffffffffffffffffffffff166108fc829081150290604051600060405180830381858888f19350505050158015611698573d6000803e3d6000fd5b505050565b60008060008414156116b257600091506116d1565b82840290508284828115156116c357fe5b041415156116cd57fe5b8091505b5092915050565b60008082840190508381101515156116ec57fe5b8091505092915050565b600082821115151561170457fe5b818303905092915050565b81548183558181111561173657818360005260206000209182019101611735919061173b565b5b505050565b61175d91905b80821115611759576000816000905550600101611741565b5090565b905600a165627a7a7230582067113a9f64cf5a1941477050bceff1b59a594ac76c0abbb2c9d9061e4e17780b0029",
  "source": "pragma solidity ^0.4.17;\n\nimport './SafeMath.sol';\nimport './Ownable.sol';\n\ncontract Payroll is Ownable {\n\n    /**\n     * event will be introduced in lesson 6\n     */\n //   event AddFund(address indexed from, uint value);\n //   event GetPaid(address indexed employee, uint value);\n //   event AddEmployee(address indexed from, address indexed employee, uint salary);\n //   event UpdateEmployee(address indexed from, address indexed employee, uint salary);\n //   event RemoveEmployee(address indexed from, address indexed removed);/\n\n    using SafeMath for uint;\n\n    /**\n     * We are using mapping here, the key is already the address.\n     */\n    struct Employee {\n        uint index;\n        uint salary;\n        uint lastPayday;\n    }\n\n    modifier onlyOwner {\n        require(msg.sender == owner);\n        _;\n    }\n\n    modifier shouldExist(address employeeId) {\n        assert(employees[employeeId].lastPayday != 0);\n        _;\n    }\n\n    modifier shouldNotExist(address employeeId) {\n        assert(employees[employeeId].lastPayday == 0);\n        _;\n    }\n\n    event NewEmployee(\n        address addrOfemployee\n        );\n\n    event UpdateEmployee(\n         address addrOfemployee\n    );       \n\n    event RemoveEmployee(\n        address addrOfemployee\n    );\n\n    event NewFund(\n        uint balance\n    );\n\n    event GetPaid(\n        address addrOfemployee\n    );\n\n    uint constant PAY_DURATION = 10 seconds;\n    uint public totalSalary = 0;\n    address[] employeeAddressList;\n\n    /**\n     * This contract is simple, We update employees by the key directly\n     * instead of updating a copy so that we could save some gas.\n     */\n    mapping(address => Employee) public employees;\n\n    function Payroll() payable public Ownable {\n        owner = msg.sender;\n    }\n\n    function _partialPaid(address employeeId) private {\n        uint payment = employees[employeeId].salary\n        .mul(now.sub(employees[employeeId].lastPayday))\n        .div(PAY_DURATION);\n        employeeId.transfer(payment);\n    }\n\n    function addEmployee(address employeeId, uint salary) public onlyOwner shouldNotExist(employeeId) {\n        salary = salary.mul(1 ether);\n\n        uint index = employeeAddressList.length;\n        employeeAddressList.push(employeeId);\n        employees[employeeId] = Employee(index, salary, now);\n\n        totalSalary = totalSalary.add(salary);\n        //AddEmployee(msg.sender, employeeId, salary);\n\n        NewEmployee(employeeId);\n        \n    }\n\n    function removeEmployee(address employeeId) public onlyOwner shouldExist(employeeId) {\n        _partialPaid(employeeId);\n\n        uint salary = employees[employeeId].salary;\n        uint index = employees[employeeId].index;\n        totalSalary = totalSalary.sub(salary);\n\n        delete employees[employeeId];\n\n        delete employeeAddressList[index];\n        address moveAddress = employeeAddressList[employeeAddressList.length - 1];\n        employeeAddressList[index] = moveAddress;\n\n        // update index\n        employees[moveAddress].index = index;\n\n        // adjust length\n        employeeAddressList.length -= 1;\n\n        RemoveEmployee(employeeId);\n    }\n\n    function changePaymentAddress(address oldAddress, address newAddress) public onlyOwner shouldExist(oldAddress) shouldNotExist(newAddress) {\n        _partialPaid(oldAddress);\n\n        employees[newAddress] = Employee(employees[oldAddress].index, employees[oldAddress].salary, now);\n        delete employees[oldAddress];\n    }\n\n    function updateEmployee(address employeeId, uint salary) public onlyOwner shouldExist(employeeId) {\n        _partialPaid(employeeId);\n\n        uint oldSalary = employees[employeeId].salary;\n        salary = salary.mul(1 ether);\n\n        employees[employeeId].salary = salary;\n        employees[employeeId].lastPayday = now;\n        totalSalary = totalSalary.add(salary).sub(oldSalary);\n\n        UpdateEmployee(employeeId);\n    }\n\n    function addFund() payable public returns (uint) {\n        NewFund(this.balance);\n        return address(this).balance;\n    }\n\n    function calculateRunway() public view returns (uint) {\n        if (totalSalary == 0) {\n            return 0;\n        }\n        return address(this).balance.div(totalSalary);\n    }\n\n    function hasEnoughFund() public view returns (bool) {\n        return calculateRunway() > 0;\n    }\n\n    function getPaid() public shouldExist(msg.sender) {\n        address employeeId = msg.sender;\n\n        uint nextPayday = employees[employeeId].lastPayday.add(PAY_DURATION);\n        assert(nextPayday < now);\n\n        employees[employeeId].lastPayday = nextPayday;\n        employeeId.transfer(employees[employeeId].salary);\n        //GetPaid(msg.sender, employees[employeeId].salary);\n\n        GetPaid(employeeId);\n    }\n\n    function getEmployerInfo() view public returns (uint balance, uint runway, uint employeeCount) {\n        balance = address(this).balance;\n\n        //double check of totalSalary\n        if(totalSalary > 0)\n        {\n            runway = calculateRunway();\n        }\n        else{\n            runway = 0;\n        }\n\n        employeeCount = employeeAddressList.length;\n    }\n\n    function getEmployeeInfo(uint index) view public returns (address employeeAddress, uint salary, uint lastPayday, uint balance) {\n        address id = employeeAddressList[index];\n        employeeAddress = id;\n        salary = employees[id].salary;\n        lastPayday = employees[id].lastPayday;\n        balance = address(id).balance;\n    }\n\n    function getEmployeeInfoById(address id) view public returns (uint salary, uint lastPayday, uint balance) {\n        salary = employees[id].salary;\n        lastPayday = employees[id].lastPayday;\n        balance = address(id).balance;\n    }\n}",
  "sourcePath": "/home/juicebox/Code/Team_G/projects/lesson-5/contracts/Payroll.sol",
  "compiler": {
    "name": "solc",
    "version": "0.4.24+commit.e67f0147.Emscripten.clang"
  },
  "schemaVersion": "2.0.1",
  "updatedAt": "2018-07-07T08:48:00.694Z"
}